{
  "address": "0x9d40F42EeeFaAf53C0f8ffdD904F4aFAAC5f1130",
  "abi": [
    {
      "inputs": [
        {
          "internalType": "bytes32[]",
          "name": "proposalNames",
          "type": "bytes32[]"
        },
        {
          "internalType": "contract IERC20Token",
          "name": "_tokenContract",
          "type": "address"
        },
        {
          "internalType": "uint256",
          "name": "_targetBlockNumber",
          "type": "uint256"
        }
      ],
      "stateMutability": "nonpayable",
      "type": "constructor"
    },
    {
      "anonymous": false,
      "inputs": [
        {
          "indexed": true,
          "internalType": "address",
          "name": "_voter",
          "type": "address"
        },
        {
          "indexed": false,
          "internalType": "uint256",
          "name": "_proposal",
          "type": "uint256"
        },
        {
          "indexed": false,
          "internalType": "uint256",
          "name": "_amount",
          "type": "uint256"
        }
      ],
      "name": "Vote",
      "type": "event"
    },
    {
      "inputs": [
        {
          "internalType": "address",
          "name": "voter",
          "type": "address"
        }
      ],
      "name": "getVotePower",
      "outputs": [
        {
          "internalType": "uint256",
          "name": "votePower_",
          "type": "uint256"
        }
      ],
      "stateMutability": "view",
      "type": "function"
    },
    {
      "inputs": [
        {
          "internalType": "uint256",
          "name": "",
          "type": "uint256"
        }
      ],
      "name": "proposals",
      "outputs": [
        {
          "internalType": "bytes32",
          "name": "name",
          "type": "bytes32"
        },
        {
          "internalType": "uint256",
          "name": "voteCount",
          "type": "uint256"
        }
      ],
      "stateMutability": "view",
      "type": "function"
    },
    {
      "inputs": [
        {
          "internalType": "address",
          "name": "",
          "type": "address"
        }
      ],
      "name": "spendVotePower",
      "outputs": [
        {
          "internalType": "uint256",
          "name": "",
          "type": "uint256"
        }
      ],
      "stateMutability": "view",
      "type": "function"
    },
    {
      "inputs": [],
      "name": "targetBlockNumber",
      "outputs": [
        {
          "internalType": "uint256",
          "name": "",
          "type": "uint256"
        }
      ],
      "stateMutability": "view",
      "type": "function"
    },
    {
      "inputs": [],
      "name": "tokenContract",
      "outputs": [
        {
          "internalType": "contract IERC20Token",
          "name": "",
          "type": "address"
        }
      ],
      "stateMutability": "view",
      "type": "function"
    },
    {
      "inputs": [
        {
          "internalType": "uint256",
          "name": "proposal",
          "type": "uint256"
        },
        {
          "internalType": "uint256",
          "name": "amount",
          "type": "uint256"
        }
      ],
      "name": "vote",
      "outputs": [],
      "stateMutability": "nonpayable",
      "type": "function"
    },
    {
      "inputs": [],
      "name": "winnerName",
      "outputs": [
        {
          "internalType": "bytes32",
          "name": "winnerName_",
          "type": "bytes32"
        }
      ],
      "stateMutability": "view",
      "type": "function"
    },
    {
      "inputs": [],
      "name": "winningProposal",
      "outputs": [
        {
          "internalType": "uint256",
          "name": "winningProposal_",
          "type": "uint256"
        }
      ],
      "stateMutability": "view",
      "type": "function"
    }
  ],
  "transactionHash": "0x05087b05fe767c8302a1ac07e0f86feec960fc9867f36b796acdd2f188a26254",
  "args": [
    [
      "0x4361747300000000000000000000000000000000000000000000000000000000",
      "0x446f677300000000000000000000000000000000000000000000000000000000",
      "0x5261747300000000000000000000000000000000000000000000000000000000"
    ],
    "0x97f7fC5fD2cF11E31053621f9AC5AdCC82895749",
    6620055
  ],
  "numDeployments": 4,
  "solcInputHash": "e685a89179302abfe859be9d7811b4c4",
  "bytecode": "0x608060405234801561001057600080fd5b5060405161072b38038061072b83398101604081905261002f91610100565b600180546001600160a01b0319166001600160a01b038416179055600281905560005b83518110156100c5576000604051806040016040528086848151811061007a5761007a6101d8565b602090810291909101810151825260009181018290528354600181810186559483529181902083516002909302019182559190910151910155806100bd816101ee565b915050610052565b50505050610215565b634e487b7160e01b600052604160045260246000fd5b80516001600160a01b03811681146100fb57600080fd5b919050565b60008060006060848603121561011557600080fd5b83516001600160401b038082111561012c57600080fd5b818601915086601f83011261014057600080fd5b8151602082821115610154576101546100ce565b8160051b604051601f19603f83011681018181108682111715610179576101796100ce565b60405292835281830193508481018201928a84111561019757600080fd5b948201945b838610156101b55785518552948201949382019361019c565b97506101c490508882016100e4565b955050505050604084015190509250925092565b634e487b7160e01b600052603260045260246000fd5b60006001820161020e57634e487b7160e01b600052601160045260246000fd5b5060010190565b610507806102246000396000f3fe608060405234801561001057600080fd5b50600436106100885760003560e01c8063b384abef1161005b578063b384abef14610104578063bb9c092014610119578063d51af1861461012c578063e2ba53f01461014c57600080fd5b8063013cf08b1461008d5780632a8cd29e146100ba57806355a373d6146100d1578063609ff1bd146100fc575b600080fd5b6100a061009b3660046103e2565b610154565b604080519283526020830191909152015b60405180910390f35b6100c360025481565b6040519081526020016100b1565b6001546100e4906001600160a01b031681565b6040516001600160a01b0390911681526020016100b1565b6100c3610182565b6101176101123660046103fb565b6101ff565b005b6100c361012736600461041d565b610312565b6100c361013a36600461041d565b60036020526000908152604090205481565b6100c36103b0565b6000818154811061016457600080fd5b60009182526020909120600290910201805460019091015490915082565b600080805b6000548110156101fa5781600082815481106101a5576101a561044d565b90600052602060002090600202016001015411156101e857600081815481106101d0576101d061044d565b90600052602060002090600202016001015491508092505b806101f281610479565b915050610187565b505090565b600061020a33610312565b9050818110156102735760405162461bcd60e51b815260206004820152602a60248201527f546f6b656e697a656442616c6c6f743a20696e73756666696369656e7420766f6044820152693a34b733903837bbb2b960b11b606482015260840160405180910390fd5b3360009081526003602052604081208054849290610292908490610492565b9250508190555081600084815481106102ad576102ad61044d565b906000526020600020906002020160010160008282546102cd9190610492565b9091555050604080518481526020810184905233917fafd3f234c1f8e944129b26b206d98e5752ad3336a4059938b4a3e990e9588530910160405180910390a2505050565b6001600160a01b03818116600081815260036020526040808220546001546002549251630748d63560e31b81526004810195909552602485019290925291939192911690633a46b1a890604401602060405180830381865afa15801561037c573d6000803e3d6000fd5b505050506040513d601f19601f820116820180604052508101906103a091906104a5565b6103aa91906104be565b92915050565b6000806103bb610182565b815481106103cb576103cb61044d565b906000526020600020906002020160000154905090565b6000602082840312156103f457600080fd5b5035919050565b6000806040838503121561040e57600080fd5b50508035926020909101359150565b60006020828403121561042f57600080fd5b81356001600160a01b038116811461044657600080fd5b9392505050565b634e487b7160e01b600052603260045260246000fd5b634e487b7160e01b600052601160045260246000fd5b60006001820161048b5761048b610463565b5060010190565b808201808211156103aa576103aa610463565b6000602082840312156104b757600080fd5b5051919050565b818103818111156103aa576103aa61046356fea2646970667358221220c9ed60ad135d70e6f08b6615ba42541460de559411f05edd624b91b0524febd964736f6c63430008140033",
  "devdoc": {
    "kind": "dev",
    "methods": {
      "winningProposal()": {
        "details": "Computes the winning proposal taking all previous votes into account."
      }
    },
    "version": 1
  },
  "userdoc": {
    "kind": "user",
    "methods": {
      "constructor": {
        "notice": "Create a new ballot to choose one of `proposalNames`."
      },
      "vote(uint256,uint256)": {
        "notice": "Give your vote (including votes delegated to you) to proposal `proposals[proposal].name`."
      }
    },
    "version": 1
  },
  "storageLayout": {
    "storage": [
      {
        "astId": 28,
        "contract": "contracts/TokenizedBallot.sol:TokenizedBallot",
        "label": "proposals",
        "offset": 0,
        "slot": "0",
        "type": "t_array(t_struct(Proposal)24_storage)dyn_storage"
      },
      {
        "astId": 31,
        "contract": "contracts/TokenizedBallot.sol:TokenizedBallot",
        "label": "tokenContract",
        "offset": 0,
        "slot": "1",
        "type": "t_contract(IERC20Token)11"
      },
      {
        "astId": 33,
        "contract": "contracts/TokenizedBallot.sol:TokenizedBallot",
        "label": "targetBlockNumber",
        "offset": 0,
        "slot": "2",
        "type": "t_uint256"
      },
      {
        "astId": 37,
        "contract": "contracts/TokenizedBallot.sol:TokenizedBallot",
        "label": "spendVotePower",
        "offset": 0,
        "slot": "3",
        "type": "t_mapping(t_address,t_uint256)"
      }
    ],
    "types": {
      "t_address": {
        "encoding": "inplace",
        "label": "address",
        "numberOfBytes": "20"
      },
      "t_array(t_struct(Proposal)24_storage)dyn_storage": {
        "base": "t_struct(Proposal)24_storage",
        "encoding": "dynamic_array",
        "label": "struct TokenizedBallot.Proposal[]",
        "numberOfBytes": "32"
      },
      "t_bytes32": {
        "encoding": "inplace",
        "label": "bytes32",
        "numberOfBytes": "32"
      },
      "t_contract(IERC20Token)11": {
        "encoding": "inplace",
        "label": "contract IERC20Token",
        "numberOfBytes": "20"
      },
      "t_mapping(t_address,t_uint256)": {
        "encoding": "mapping",
        "key": "t_address",
        "label": "mapping(address => uint256)",
        "numberOfBytes": "32",
        "value": "t_uint256"
      },
      "t_struct(Proposal)24_storage": {
        "encoding": "inplace",
        "label": "struct TokenizedBallot.Proposal",
        "members": [
          {
            "astId": 21,
            "contract": "contracts/TokenizedBallot.sol:TokenizedBallot",
            "label": "name",
            "offset": 0,
            "slot": "0",
            "type": "t_bytes32"
          },
          {
            "astId": 23,
            "contract": "contracts/TokenizedBallot.sol:TokenizedBallot",
            "label": "voteCount",
            "offset": 0,
            "slot": "1",
            "type": "t_uint256"
          }
        ],
        "numberOfBytes": "64"
      },
      "t_uint256": {
        "encoding": "inplace",
        "label": "uint256",
        "numberOfBytes": "32"
      }
    }
  }
}